:020000041000EA
:1000000000B5324B212058609868022188439860DF
:10001000D860186158612E4B002199600221596106
:100020000121F02299502B49196001219960352056
:1000300000F044F80222904214D00621196600F024
:1000400034F8196E01211966002018661A6600F04E
:100050002CF8196E196E196E052000F02FF8012189
:100060000842F9D1002199601B49196000215960AB
:100070001A491B48016001219960EB211966A021F2
:10008000196600F012F800219960164914480160C1
:100090000121996001BC002800D000471248134993
:1000A000086003C880F30888084703B5996A0420EC
:1000B0000142FBD001200142F8D103BD02B5186610
:1000C0001866FFF7F2FF186E186E02BD00000240BE
:1000D000000000180000070000035F00212200005C
:1000E000F4000018222000A00001001008ED00E03C
:1000F00000000000000000000000000074B24E7A12
:1001000000200420F7010010CB010010CD010010E9
:10011000C9010010C9010010C9010010C901001077
:10012000C9010010C9010010C9010010CF01001061
:10013000C9010010C9010010D1010010D301001045
:10014000C1010010C1010010C1010010C101001067
:10015000C1010010C1010010C1010010C101001057
:10016000C1010010C1010010C1010010C101001047
:10017000C1010010C1010010C1010010C101001037
:10018000C1010010C1010010C1010010C101001027
:10019000C1010010C1010010C1010010C101001017
:1001A000C1010010C1010010C1010010C101001007
:1001B000C1010010C1010010C1010010C1010010F7
:1001C000EFF30580103800BE00BE00BE00BE00BECA
:1001D00000BE00BEF2EB8871343F0010543F0010A7
:1001E0003802001090A31AE71E481F49086006C88D
:1001F00081F3088810471D480068002801D019487D
:10020000F3E70DA40ECC002902D000F012F8F9E7B4
:100210001749184A002000E001C19142FCD116495B
:100220008847164988471649884700BEFDE701C937
:1002300001C29A42FBD37047543F0010C000002017
:1002400058100020EC4E0010000004200000042094
:10025000EC4E0010001004200010042000000000EC
:10026000704700000000000008ED00E0000000D032
:1002700058100020F01F00206D1C001025030010F6
:10028000651C0010F8B5C04606480749091A8B10CE
:10029000C90FC91810B5491003D0044B002B00D06A
:1002A000984710BD58100020581000200000000092
:1002B000054B10B5002B03D00449054800E000BFF2
:1002C000FFF7E2FF10BDC04600000000AC1F002099
:1002D0005C3C0010D0231B06002A08D004225A617F
:1002E000D02308221B06002908D05A617047042237
:1002F0009A61D02308221B060029F6D19A61F5E7FE
:100300004A780B7812021A4310B58B78C9781B040F
:10031000134309060248194301F064F810BDC046B2
:1003200000400340F0B5D0248026C1B02406192037
:10033000B60400F00DF902206662A66100F008F92B
:10034000042303206362636100F002F90823E121C2
:10035000636249026361454800F0B4FF0221002056
:1003600000F0C8F80221012000F0C4F800220121A9
:10037000012000F0D9F80021002003F067F80025E3
:1003800001272F4266D050206661013500F036FE0D
:10039000062DF6D1D02380226F4680251B069204BD
:1003A0005A617E1E6D00314C04E0002002F0B6FD63
:1003B00000282DD101200021404201F0D7FF00206C
:1003C00002F0C6FD0028F0D00200A84201D9802228
:1003D00052003900002002F0C9FD3900030020223C
:1003E0003818002B07D0A3691A42FCD10B780131D1
:1003F00023608142F7D1D02380221B0659689204E2
:1004000011422FD100205A6102F088FD0028D1D07E
:100410001020020015498B691A401842C3D10132DD
:100420008B691842FCD10B68B3548B69184201D117
:10043000AA42F4D13900002002F024FE002002F08C
:10044000E3FDD02380221B065968920411420BD190
:100450005A61A8E75020A661013500F0CFFD062DB6
:100460008FD197E79A61A0E79A619CE7004003402B
:1004700000487047F43D001000487047A83D001048
:1004800070B5002825D0042829D8164B8000C558FF
:10049000280003F041FBC0B2041C1F2814D8E4B2AA
:1004A000002808D00023104AE95C01331180D9B23A
:1004B00002328C42F8D8C0220134E3B25B009200D1
:1004C0000A481343038070BD1F24E4B20028E9D119
:1004D000F1E7074B05484380063BFF3BF2E700206E
:1004E000F1E7C046903D0010FE180020FC180020E7
:1004F00009040000094A83009A1810B514684022C4
:10050000544080322240064CC000A44663441A6026
:10051000044B9C466044416010BDC04604C001408D
:1005200004D0014000400140074B8000C3181B6805
:10053000C90092000A435A400C231340034A9446D0
:10054000604403607047C04604C0014004D00140CD
:100550000123D0228340120693629361094A8300EB
:100560009A1811684022514080320A400649C00062
:100570008C4663441A60054B9C46052360444360E7
:100580007047C04604C0014004D001400040014013
:100590008023DB051868000F7047C0460FB400B514
:1005A000084883B001F0A0FC049B002B07D005A9EC
:1005B0001800019101F03CFB034801F095FC01207B
:1005C00001F04EFB903C0010A03C001070B5EFF322
:1005D000108C72B60D4D2B68002BFCD0BFF35F8FD3
:1005E0000724CB08C618C05C01230C40A3401C00A4
:1005F0000440034207D118433070BFF35F8F2C6073
:100600008CF3108870BD1000FFF7C8FF2C0100D0DC
:10061000F8B54746CE46884680B5EFF3108C72B6E3
:100620001C4D2C68002CFCD0BFF35F8F9A4222D85F
:1006300007210126894602E00132934218D34D4634
:1006400037001540AF40D4080119045D2742F3D1AB
:1006500010003C430C70BFF35F8F00220D4B1A60FB
:100660008CF3108800280EDBC0BCB946B046F8BD3C
:1006700001204042EFE7BFF35F8F00232B608CF334
:100680001088012040424346002BEDD00898FFF728
:1006900085FFC0462C0100D0044A1078431CDBB211
:1006A000172B00D9102313707047C046A00F0020ED
:1006B00010B5064B064C82B00100009318221F2390
:1006C0002000FFF7A5FF02B010BDC046A43C0010FB
:1006D000681B00200021044B044ABFF35F8F02C354
:1006E0009342FAD17047C046000100D0800100D08B
:1006F000054B064A1360064A136053609360D3604B
:1007000013615361936170478080808000E400E052
:1007100004E400E01F2318401E3B8340002905D05D
:10072000C021044A49005350136070478022014998
:100730008B50FAE700E100E070B50D00EFF3108692
:1007400072B60F4A1368002BFCD0BFF35F8F0D4BBE
:1007500010309B6884001B590B4A934203D09D4282
:1007600001D001F02FF8074B9B681D51BFF35F8F3D
:10077000BFF35F8F0022024B1A6086F3108870BDB2
:10078000240100D000ED00E0C1010010F0B5574693
:100790004E46DE464546E0B585B00600009117009E
:1007A000EFF3108B72B66A4A1368002BFCD0BFF3CC
:1007B0005F8F0025674B5D579A46002D00DAA9E050
:1007C0006B00654C01935B199B009846A146C144A0
:1007D0004B4652469B7910361370604BB6009B68AF
:1007E00099590B1B2F2B33D95D4B994200D0ACE0AC
:1007F000019B42469C465B4B6544AD0063535A4B9C
:100800000232A218043B9B1A1B05584A5B0D65195E
:1008100013436B80564B0121AB80FF23AB71009BD0
:10082000EF71AB604B460B4319004C4B9B689951E1
:10083000BFF35F8FBFF35F8F0022454B1A608BF3CE
:10084000108805B0F0BCBB46B246A946A046F0BD34
:1008500001200A008243D3798C46BB4231D84546F9
:10086000130044491B1B5B415943090D3D4B635326
:100870003D4B02356519043B5B1B1B053B4D5B0D76
:100880002B43AA464D466B800425AC465546E044B2
:10089000131F44441B1B1B055B0D1D434B469971E5
:1008A00000999D8099604946DF71334B0143136085
:1008B000BBE75800C01880002018C179B9422FD971
:1008C00002000623D356002BF3DA02932B4B61462A
:1008D0000393131D9A4604235B429C46E144504611
:1008E0004B461B1A1B055B0D9C46204B9571984689
:1008F0006346404603439380019B5A199200039B31
:10090000A418A380029B1C4AA371009B2260E7717C
:10091000A3608AE700F056FF002553465D574FE776
:10092000908802934005131D9A46031561469C4624
:100930004046D444634604302018181AE0230005CA
:10094000400D1B0218430390C5E700F03BFF4FE743
:10095000240100D0EC1F0020A40F002000ED00E0D7
:10096000C101001000A1FFFFD40F002000E0FFFF35
:1009700001BDFFFFAAAA00000148804701BD000099
:1009800070B501240443EFF30581EFF3108C72B6C8
:10099000214A1368002BFCD0BFF35F8F1F4B05006B
:1009A0001F4AED1A6D416A43120D1E4D8900AE6853
:1009B00052B27658A6421CD00621595691421CD0FC
:1009C00012215956914222D01E215956914220D0CF
:1009D0002A2159560324914210D0134B19781A70CA
:1009E0008171BFF35F8F00220B4B1A608CF310886C
:1009F00070BDAB680D4C5C50EFE700246100091935
:100A000089005B18FF21997109499980E5E7012464
:100A1000F4E70224F2E7C046240100D0A40F00202E
:100A2000AAAA000000ED00E0EC1F0020C1010010A8
:100A300001BDFFFF024B9C46614489000160704785
:100A40004000003470B5114C114DAC420FD2FF265E
:100A50002368002B0CD0FFF71FFE01002000FFF7DA
:100A6000E9FFA680BFF35F8F0834AC42F0D370BDBE
:100A7000FFF712FE01002000FFF7DCFF2671BFF335
:100A80005F8F0834AC42E3D3F1E7C046501000203A
:100A90005810002010B50400FFF7FEFD01002000F3
:100AA000FFF7C8FFFF232371BFF35F8F10BDC04660
:100AB00010B504000120FFF7FBFD034BC3189B009A
:100AC0002360BFF35F8F10BD400000340A4B1968EC
:100AD000EFF3108072B60A68002AFCD0BFF35F8F74
:100AE0001B68BFF35F8F00221A6080F3108840BF3D
:100AF000002000217047C046E01F0020F0B5DE4610
:100B000057464E464546E0B587B0EFF305830322CE
:100B100001251A40954091008846A946B34B03929F
:100B20005C58B34B1D60B34B04934B46B2484363D0
:100B30000823E55E002D37DAA3881BB2002B00DB0B
:100B4000ADE0A379002B00D0EEE00823E05E0028A2
:100B500020DB430062691B18DB00D3189E68DD6848
:100B6000731C00D111E1A44801004144826A0B6961
:100B7000B71A9B1A9F4215D30123026A0398834038
:100B80001A420FD09C4800F047FB8D4202DCCCD1CA
:100B90008642CAD940BF07B0F0BCBB46B246A946A0
:100BA000A046F0BD0E61EDE762696B0092465B19ED
:100BB000DB009A4453469E68DF6800F02DFB8F42AD
:100BC000BADC00D103E1002F00DAE8E052465346D8
:100BD00052691B699346049A934200D1D9E0524668
:100BE0000821605E528800045946104398470090DF
:100BF00001910099019A0B001000134300D1CEE03F
:100C000013000A00B61A9F41002806DB7A4800F05C
:100C100003FB009E019F36184F4153469E60DF60E4
:100C200000229A5E002A00DA86E75300991860696C
:100C3000C900411802938B68C9689B46B94200DD20
:100C40007AE702D1B34200D976E708239C46A44450
:100C5000059565462281A446029B2C0006E05300C0
:100C60009918C90041188D68C968AB469B18DB000C
:100C7000C318B94206DC00D1B3E01C000023E25ED9
:100C8000002AECDA230064469C4653461A806346E9
:100C9000059D1D80A3881BB2002B00DA51E7226955
:100CA000EFF3108172B61368002BFCD0BFF35F8F97
:100CB0000123A7885B42A3803FB22369BFF35F8F04
:100CC00000221A6081F31088002F00DA39E7230030
:100CD000083322009A4666697B00DB19DB00F318B3
:100CE000996850468C460824115FDD68002910DBA6
:100CF000029306E0AB4244D00023E15E20000029CD
:100D000006DB4C006418E4003419E368AB42F1DD03
:100D1000029B078000201F5E1980002FDCDA140080
:100D2000A379002B00D110E70023A371260008232C
:100D3000E15E08364B1C00D12CE70800A24665692D
:100D400002E03E004B1C1AD04B005B18DB00EF1892
:100D50000A008C46E95E7B881BB2002BF1DA012386
:100D60005B42DC17BB60FC60824205D05346318099
:100D70001B893B8053461A8160464B1CE4D1544684
:100D8000E5E6A3686345B7D9C2E76B1C00D0EAE685
:100D9000F8E65B4658461B69984700281BD1534626
:100DA0001B8822692381EFF3108372B61168002932
:100DB000FCD0BFF35F8F514662880A80226965804C
:100DC000BFF35F8F0021116083F31088B4E6864281
:100DD00000D8F8E6B0E65B461A685B6800920193BB
:100DE00007E7B34500D848E74CE7C046C41F0020DA
:100DF0003C700540FD0A00100040054070B52E4CC7
:100E00002569002D04D00A212C48FFF713FE70BD80
:100E10002B4E0321300000F0F5F9E660FFF73CFCB3
:100E2000284B03229C46D02322701B061B680121FD
:100E30006370254B6044A3600F2380002061022073
:100E4000638063694942A180198002311986473164
:100E50001D83585218315A5275325C3999521832E2
:100E60000131995218320131995218320131995297
:100E7000083518329D520231183299521832013118
:100E8000995218320131995218320131995218325F
:100E9000013199521832013199520C4B0C49DC60E6
:100EA00001303562FFF748FC01210320FFF732FCD7
:100EB000084B1D60A7E7C046EC0F0020E01F002094
:100EC0000040054040000034FFFF1000C41F002018
:100ED000FD0A00103860054070B501000469EFF3A9
:100EE000108C72B620680028FCD0BFF35F8F022000
:100EF0000D5E4C6968004019C00024180869002D77
:100F000036DB26884E80BFF35F8F002606608CF3A9
:100F10001088E36063880498013320615B040598BE
:100F20005B0CA26060611A1C002B1FD093B22804D6
:100F3000628018430A69EFF3108C72B61368002BB5
:100F4000FCD0BFF35F8F8B8823808D800B69BFF34C
:100F50005F8F00221A608CF310880B7801329A4060
:100F6000CB6808498C4663441A6070BD0122DDE7F6
:100F7000BFF35F8F002303608CF310880120404291
:100F8000F3E7C0463C20000010B543890A149342A1
:100F90001ADD53009B184269DB00D3180469EFF394
:100FA000108C72B62268002AFCD0BFF35F8F5A887B
:100FB000090494B2090C8A4208D00369BFF35F8F19
:100FC00000221A608CF31088002010BD80221202CB
:100FD00014435C80012302698371BFF35F8F00219A
:100FE00011608CF31088044902788C469340C268E3
:100FF000012062441360E8E73C200000F0B5C646DB
:1010000000B582B0040000F00FF9FA2206000F00CC
:10101000200000230021920000F08CFD801979410E
:1010200004000D1E02DA01242E4D6442062676428B
:10103000F71736196F41AF4214D811D000F0F4F809
:1010400032003B00121A8B41002B15DC002B46D0DE
:101050002000290000F026F902B080BCB846F0BD9F
:10106000A642EBD90026002700F0DEF832003B0054
:10107000121A8B41002BE9DD00F0D6F832003B005C
:10108000121A8B41002B0ADB00230193164B32000E
:10109000009316483B00FFF71FFF0130D8D0002314
:1010A0003900B0469C46124A1248536A994204D805
:1010B000966A4645CCD29942CAD10668EFF31087AA
:1010C00072B63368002BFCD0BFF35F8F0368BFF3A9
:1010D0005F8F66461E6087F3108820BFE5E7002A11
:1010E000B6D0C9E7FFFFFF7FCD0A0010EC0F00204C
:1010F00000400540E01F0020F0B557464E46DE4652
:101100004546E0B506000F0085B0EFF3058399462C
:101110008B46002B12D0384900204B6ABB4206D3C5
:101120008A6ADB1B591E8B41B2424041184305B00D
:10113000F0BCBB46B246A946A046F0BD2F4B9A462E
:10114000DB68984653461B784046039300F064F8EA
:101150004246039B040004339B009B580D001B1A5E
:1011600039003000001BA941894510DC0DD020BF9B
:10117000214A0020536A5B45D9D3926ADB1B591E72
:101180008B41B24240411843D1E78342EFD900F08E
:101190004BF832003B00121A8B41002B1ADB002364
:1011A0000193174B3200009350463B00FFF794FE2B
:1011B000011E0FDD104B5A6A5A451BD39B6AB3427E
:1011C00016D35046FFF7E0FE0B4A0020536A5B45FA
:1011D000ADD3D2E7084A0020536A5B45A7D300206D
:1011E000926ADB1BB24240415A1E934118439EE76C
:1011F0005A45E6D120BFE4E700400540EC0F00204F
:10120000CD0A001010B5024A0248FFF7DFF910BD01
:10121000C03C00106C1B00200300416A0A00986A61
:10122000596A8A42FAD17047034B596A0A00986A90
:10123000596A9142FAD170470040054070B50400E8
:101240000D00174A536A1900966A536A8B42FAD105
:101250003000190024184D41AB4216D813D0104B62
:101260002A005B6A9D4203D90D494B6A9342FCD325
:10127000934207D10A4A02E0516A994202D1916A27
:10128000A142F9D370BDA642E9D9054B5B6A1C00A7
:101290005A1CEFD0012201246442E5175242E3E7D1
:1012A00000400540064A536A9942FCD807D1044BD6
:1012B00002E05A6A914202D19A6A9042F9D8704784
:1012C00000400540F8B5040006200D0000F0D2F9FA
:1012D000002844D0374B3849E3185A1E93418022E6
:1012E000120494465B429B0D344A9B056344136091
:1012F000334A136018000A689043FBD12D4B314AE2
:10130000E31859424B4180215B0049000620995265
:1013100000F0B0F92900C00000F07EFB0130C309E5
:101320001ED1402701226262A362266BF30722D4FA
:10133000E36A254B0620E51800232B60266300F0A6
:1013400099F93900800000F067FB7023E26A5A4087
:101350000E3313402B601D4B23630323A364F8BD9E
:101360001B4A93421ED900231A4A1B4F6262A36292
:10137000266BF307DCD5194B144AE3181A60656A2B
:10138000A36A0620AD01ED1800F074F9144900F0CD
:1013900043FBAD020100280000F03EFB0021FFF7F7
:1013A0004DFFC5E74006800E9F011A003F1803005D
:1013B000B9E7C0460080FCBF08C0004000E0004024
:1013C00000F00040E41F00202C100000010300008A
:1013D000FEFF0000FFFF0000C0FF3F0030300000B4
:1013E0004E0E0000F8B5040006200D0000F042F992
:1013F0002900C00000F010FB0130C30921D01F4AB2
:10140000934233D900231E4A1E4F6262A362256BAA
:10141000EB071DD51C4B1D4AE3181A60666AA36AC8
:101420000620B601F61800F025F9194900F0F4FA83
:10143000B6020100300000F0EFFA0021FFF7FEFED7
:1014400006E0402701226262A362256BEB07E1D42C
:101450000022E36A0F4B0620E3181A60256300F0B0
:1014600009F93900800000F0D7FAF8BD4006800E77
:101470009F011A003F180300E5E7C046FEFF000089
:10148000FFFF0000C0FF3F003030000001030000FC
:101490004E0E00002C100000F8B5DE464E465746B2
:1014A0004546E0B58B4605000A991800160000F085
:1014B000B3FA0A9B6C001F02324B64199C46A400CD
:1014C0006444636881469F4200D967602B1FDBB28A
:1014D0009846012B30D9C02380229B01E3181201CA
:1014E0001A60294BAD0059599A4600291BD1730146
:1014F000E026226853401E40802342465B01E318E9
:101500001E60012A30D9802380229B01E31812013A
:101510001A6053464A4667605A51F0BCBB46B24611
:10152000A946A046F8BD586900F076FA013043009C
:101530001B18033BFDD2DAE75B46012BCBD1C0235E
:1015400003229B01E3181A60023AA3681A42FCD0F6
:101550007301E0262268AD0053401E4080230A4AF2
:101560005B019246E3181E605A46216851400322EF
:101570000A401A6001225B469A40A3681A42FCD0D6
:10158000C1E7C04600800040701B0020F0B5464611
:101590004F46D646C0B51F00344B44009C46241825
:1015A000A4006444636888461600FF2B02D8802399
:1015B0005B006360031FDBB29A46012B30D9C02366
:1015C00080229B01E31812011A60294B85005959AA
:1015D000994600291BD17301E026226853401E4022
:1015E000802352465B01E3181E60012A30D9802314
:1015F00080229B01E31812011A6080235B00636064
:101600004B465F51E0BCBA46B146A846F0BD5869AA
:1016100000F002FA013043001B18033BFDD2DAE769
:101620004346012BCBD1C02303229B01E3181A6050
:10163000023AA3681A42FCD07301E02622688500B2
:1016400053401E4080230A4A5B019146E3181E6006
:1016500042462168514003220A401A600123424653
:101660009340A2681342FCD0C1E7C046008000400E
:10167000701B0020014B8000C0587047701B002079
:10168000F8B5040021481E0017000D0000F0C4F951
:101690000100380000F0C0F9069B36041B031E430E
:1016A0002368002B20DB1A4B1A49E3185A1E93417A
:1016B0008022920194465B421B0B174A1B03634432
:1016C0001360164A13601F000A689743FBD1144B3E
:1016D0002560E2182123A06013602368002BFCDA48
:1016E0000823E6601360F8BD3F2322681340AB4235
:1016F000D9D1A3681B051B0D8342D4D1EE22E36828
:10170000D2021340B342CED1EDE7C046001BB70072
:101710000040FDBF08C0004000E0004000F0004075
:10172000043000008023024A9B000B43D3627047C1
:1017300000800540002310B50100988A1B8B984754
:1017400010BDC046162310B50100188802331B884F
:10175000984710BDF8B54746CE4680B50F1E18D045
:1017600014239946043304000025012698464B466D
:101770001888434621681B88984701C4431E984136
:1017800001350640AF42F2D13000C0BCB946B04688
:10179000F8BD0126F8E7C046AA23064A1B011360DC
:1017A0008D235B00D3600449044B19605368002B00
:1017B000FCDA70470040024000B0FA0000600240CE
:1017C0007047C04610B50148FEF7E8FEE43C001043
:1017D00070B5074D074EB54209D20024013E761B75
:1017E000B60808CD984723000134B342F9D170BD43
:1017F000183C0010543C0010054B064A06491A607C
:10180000064A074B1A6010000B689843FBD17047DB
:1018100000E00040BFCDFBFE08C00040FE7F3C0062
:1018200000F00040044BDB6C002B03D18022034B03
:10183000D2021A607047C046000011504C2011506F
:10184000044A054B1A60054A1368DB018033FBD15B
:101850007047C046FFFFFF0100F0004008C0004095
:101860004022034B9A675A671A67DA667047C04688
:1018700000F0014010B5FEF72DFF10BDF8B5274967
:10188000274C284D641AA6103200302E00D9302281
:101890002800920000F0BEF9BC2C3BD830202F234A
:1018A0002C196407204A801BE40F9B1B052B16D9BB
:1018B0003700002C02D0B300771CEA50001B33190C
:1018C0009B004108EB18C900C9181A605A60083318
:1018D0009942FAD1012303421CD09843C619B300A0
:1018E000EA50731C2F2E15D09B00EA50B31C2E2EED
:1018F00010D09B00EA50F31C2D2E0BD09B00EA5019
:10190000331D2C2E06D09B00EA50731D2B2E01D0C8
:101910009B00EA50054B9D60F8BDC04600010010D9
:10192000C001001000000020C101001000ED00E027
:10193000002310B5294C82B0A367FFF72DFF0122C9
:10194000274B1A60636C012BFCD10322254B1A60D4
:10195000224A936B012BFCD1013300930121224ACF
:1019600022480433FFF78CFE052301210093204A0F
:101970002048FFF785FE0022022104201E4BFFF7BE
:1019800005FE0022012105201C4BFFF7FFFD002270
:10199000002107201A4BFFF7F9FD00220021082043
:1019A000174BFFF7F3FD8023DB000093002200219B
:1019B0000920134BFFF770FD0022104B0021062079
:1019C000FFF7E4FD0420FFF755FE0E4900F024F870
:1019D00001000020FFF7A6FE02B010BD008000400D
:1019E0003CB0004030B00040002F685900800240F9
:1019F000008C864700C00240001BB70040597307A7
:101A0000006CDC0240420F0001480421014B1847E2
:101A10001010002055170010114A936F9B0813D225
:101A200010665166002905D0FFE7FFE7FFE7516F19
:101A3000106F704704B5002801D00020C04302F0A9
:101A4000C3F8002104BDC046F0B5146E556E576F43
:101A5000166FFFF7E5FF1466556657671667F0BD0A
:101A6000000000D0132370B51D78012D19D014DDAE
:101A70001F48FFF767FE06001E48FFF763FE1E4C77
:101A800080223100200000F0C5F8022D2DD01B4827
:101A9000FFF750FE1A4B186070BD1A4B164CA3642A
:101AA000F5E7184B144C23606360A360E360236187
:101AB0006361A361E36123626362A362E362236300
:101AC0006363A363E36323646364A364E3642365E0
:101AD0006365A365E36523666366A366E3662367C0
:101AE0006367A367E367A364D1E7064BA364CEE70C
:101AF0005344000053460000D81100204C3300002E
:101B0000DC1F0020091B001007B5604601880A0A87
:101B10000230DF2AFAD1C9B2820804D30288408891
:101B20000004104300E00068014A5050039007BDD4
:101B3000D811002051434343C9188C46110C83B27D
:101B40004B4310B4040C614392B280B250436243E1
:101B50001C041B0C001910BC59411304120CC018B2
:101B60005141614470470000132310B512481C789E
:101B7000FFF7E8FD0100012C0AD003DD80220F48A9
:101B800000F048F80E48FFF7D5FD0E4B186010BD69
:101B90000A4C5422200000F03DF80B4B6365A3650E
:101BA000E36523666366A366E36623676367A367EB
:101BB000E3672362E361E5E753460000D8120020A3
:101BC0004C330000DC1F0020CD1B001007B5604621
:101BD00001880A0A0230DF2AFAD1C9B2820804D386
:101BE000028840880004104300E00068014A505019
:101BF000039007BDD812002001480421014B18476B
:101C00002010002055170010014B1B6818470000DA
:101C100020100020014B5B681847000020100020B6
:101C200010B5002800D110BD00F014F9FBE7C04644
:101C300010B5094A0300146884B0002C08D00122B2
:101C400000910648524203A9A047012004B010BDEC
:101C500000F04AF90020F9E7A41F0020211C001021
:101C600000BEFDE710B5FFF7FBFFC04670B5FFF7FC
:101C7000AFFD074D074EB54209D20024013E761B49
:101C8000B60808CD984723000134B342F9D170BD9E
:101C9000543C00105C3C0010030010B5080011001B
:101CA0001B68984710BDC046F0B5C64600B5437DD9
:101CB00007000C001600002B46D0002A17DD0B7819
:101CC0000A2B24D000239846012E13D00125290089
:101CD000635C01350A2B26D0B542F8D1464509DCB4
:101CE000A419013C23780D3B5A4253413B7580BCFB
:101CF000B846F0BD4346E018A419F11A013C3B6810
:101D0000984723780D3B5A4253413B75EFE7037DDB
:101D1000002BD7D102210F483B689847012EDFD016
:101D200001239846D2E7631E5B5C0D2BD4D0884517
:101D300004DA4346C91AE0183B689847022105486F
:101D40003B68A8469847C7E70368110020009847FA
:101D5000CDE7C0465C3E0010F0B54546DE464E4637
:101D60005746E0B583B091461C0080460D00FFF752
:101D70005BFA0023304A12184B41002B02DA012291
:101D80002E4B52422E4908008A4601F02DFF0700D3
:101D90006B1C03D1404601F0BFFE0500002C27D08C
:101DA000284E294B1C68002C18D04B46002B21D103
:101DB000264B994602E02469002C0FD02368002BA3
:101DC000F9D04B461B68002B01D09C42F3D1200078
:101DD0002A004146B0472469002CEFD1002F26D1BC
:101DE000280003B0F0BCBB46B246A946A046F0BDF1
:101DF000174ED6E7154B99460A239B4602E0246905
:101E0000002CEBD02368002BF9D04B461B68002B2D
:101E100001D0A342F3D12A0041462000B0476B46CF
:101E20005A462000DA71D91D0122B047E7E7504633
:101E300001F0B2FED4E7C04640420F00FFFFFF7F33
:101E400050100020A91C0010981B0020A01B00208F
:101E5000991C0010F0B5CE46474680B583B06B465E
:101E60000600DD1D2870FFF7DFF90023194A12185C
:101E70004B41002B02DA0122174B5242174908004E
:101E8000884601F0B1FE164B81461C68002C14D028
:101E9000144F02E02469002C0FD02368002BF9D0E6
:101EA0003B68002B01D09C42F4D120000122290084
:101EB000FFF7FAFE2469002CEFD14B46002B05D129
:101EC000300003B0C0BCB946B046F0BD404601F09A
:101ED00063FEF5E740420F00FFFFFF7F5010002038
:101EE000981B0020A01B002070B5040001F014FE18
:101EF00001230100050001222000FFF72DFF084B00
:101F00001C68002C06D06368002B05D09847246914
:101F1000002CF8D1280070BD2469002CF3D1F9E71A
:101F2000981B0020F8B500F047F90C23194DFF224B
:101F3000AB6705201849FEF729FC184C4022002108
:101F40002000FFF761FE4027002301262121144ACB
:101F500066702783A260136063545F3161844539E2
:101F60006354104A10496360E2602787A1620B60E6
:101F70006362E26201F020FE80239B052E64EB6425
:101F800090230A4A0120EA508022094B5202DA6467
:101F9000F8BDC0460000115015030020A41B00200E
:101FA00084001050000110508000105010D001002B
:101FB0000020115010B501210520FEF7ABFB10BD2C
:101FC00010B500220021024800F016F910BDC046ED
:101FD000C41B0020044B1970002904D080219023D9
:101FE000024A8902D1507047E91F00200020115099
:101FF0000B785B0602D14B78052B00D070478A78AE
:10200000014B1A60FAE7C04600001150F0B5C64611
:10201000C87800B58007830F1800012B60D08F7837
:102020000A794B797F213940FC091B024E0013438A
:10203000334D32195201AA18977001276740577023
:1020400000275B055B0DD7701383D076B846CA00B6
:10205000012C32D02B4FBC468F016244BC46AC44AD
:102060006746BA6047461760002932D0264AC90041
:1020700090466246414451603F223F3393430228D9
:1020800037D0224937190A687F01D3180B602049DD
:10209000EF19FA608B422ED836197601AD19EB7E16
:1020A0001C499B064A4013438022120613436A6868
:1020B0001360012080BCB846F0BD174FBC468F01AD
:1020C0006244BC46AC446746BA6247461760002982
:1020D00008D1002364012C196360104BE360E8E72A
:1020E0000020E7E70B4AC90090466246414451622E
:1020F000C2E75B00C5E7FFF765FBFA68CCE7C046BF
:10210000A41B00208400105004001050A81F0020C1
:10211000FF0F1050000010508000105000011050B0
:1021200010B501F049FD10BD10B57F200C00204016
:102130004000E409110000191A00034B4001C018C7
:1021400000F05AF8012010BDA41B00207F231800C6
:1021500000B5084083B00B4204D14B424B41084AC2
:10216000013393668022C9094000064B40184001A4
:102170000021C018120101F047FD03B000BDC046A8
:1021800000201150A41B00207F22130010B50B402B
:102190000A4200D110BDC9095B005B1804485B010D
:1021A000C018002300220349C37001F02DFDF1E7A0
:1021B000A41B0020FFF7FFFF80220A4B520410B53A
:1021C0001A60094B09491A6010000B689843FBD14B
:1021D0008022002152010648FFF716FD0922054B17
:1021E0005A6710BD00E0004000F0004008C0004009
:1021F0000000105000001150002310B5C3820133BD
:10220000828283760161040001F0CEFC002804D0B4
:1022100080219023074A8902D150200001F0ACFCB4
:10222000002802D00123237710BD200001F0E4FC38
:10223000FAE7C04600201150002070477047C046A2
:102240007047C0460020704700207047002070474C
:102250007047C0467047C0467047C0467047C0468A
:10226000024B5878431E9841C0B270474C19002069
:10227000024B18784007C00F7047C0464C19002029
:10228000F0B5D6464F464646C0B52D4B07009A4698
:102290001B780E00FF2B4DD100293ED00021542287
:1022A0002848FFF7B1FC0022274C284B20001A7069
:1022B000FEF7F0FB264B1C60264C2000143CFEF77A
:1022C000F7FB200001F0BEFB234B244D1C60244B88
:1022D000002B04D0280000E000BF224B1860224AE7
:1022E000002491461F4A2B7890460EE043461B6817
:1022F00062019B18002B10D05B68002B0DD0984713
:1023000001342B78E4B2A34209D3A342EED8E31AF6
:102310005B014B445B68002BF1D100200BE053467E
:10232000310038001F70FFF7FDFD0028F5D03800A0
:10233000FFF740FE0120E0BCBA46B146A846F0BD1A
:102340004C1000204C19002044190020EA1F0020E6
:10235000A019002044100020A4190020E81F00202C
:1023600000000000D8130020083F0010F0B5DE4642
:1023700057464E464546E0B5C94B91B003931B788E
:10238000FF2B00D145E1C74BC74E9B465F46C74B6D
:102390000DAC0293C64B019335686A69EFF3108167
:1023A00072B61368002BFCD0BFF35F8FA9612800C1
:1023B000210001F077F96A69AB69BFF35F8F0021F3
:1023C000116083F31088002800D122E16378082B84
:1023D000E2D89B00FB589F466368002BDCD0A068C6
:1023E0009847D9E77F222179B04D0A405300EB1876
:1023F0009846C809804440460123303005799D4302
:102400000571057903339D430571002A00D107E169
:102410004346A84A1B7D1278934200D3F7E0A64AB0
:102420005B011568ED18002D00D1F2E0A368627918
:102430002078AD69A847AFE7A04A1378002B00D1F8
:10244000E7E01378013BDBB213701378002BA3D1C4
:102450000122964D01212B78042013432B70342345
:10246000EA5C8A43EA54EA5C8243EA540133EA5C58
:102470008A43EA54EA5C8243EA54237800209B466C
:1024800000F08AFC602223791A40602A00D1F2E031
:10249000402A00D1F8E0DB06DB0E012B00D115E16C
:1024A000022B00D1CBE0002B00D0E4E0202A00D1A9
:1024B0000FE2002A00D0DEE06379092B00D9DAE0D0
:1024C0007F4A9B00D3589F46784D2B78DB0700D47A
:1024D00062E7FFF7C3FE5FE7029BDB78DB0700D410
:1024E0005AE76068FFF7ACFE56E7704D2B78DB07C4
:1024F00000D451E728780007C00FFFF7ADFE4BE787
:1025000023786B4A994693466A4B6B4A98469246A3
:102510003A00002547461B78B0464E4691460EE0ED
:1025200053461B686A019B18002B00D17EE0DB68D4
:102530003000984701353B78EDB2AB420CD3AB424B
:10254000EED8EB1A5B015B44DB683000984701353D
:102550003B78EDB2AB42F2D2544D54220021280018
:10256000FFF752FB1022FF21281DFFF74DFB28002B
:102570002022FF21143046464F46FFF745FB00F06E
:1025800001FC2379AB7007E723784B4A9946494B06
:10259000924698463200BB464E4600254746914635
:1025A0001B780DE053461B686A019B18002B41D035
:1025B000DB683000984701353B78EDB2AB420ED373
:1025C0009D42EFD3019AEB1A94465B016344DB68AA
:1025D0003000984701353B78EDB2AB42F0D2029D16
:1025E000542200212800FFF70FFB1022FF2135485D
:1025F000FFF70AFB28002022FF2114304E465F46D9
:10260000FFF702FB00F0BEFBFFF724FEC4E6934297
:1026100013D011B0F0BCBB46B246A946A046F0BDEF
:10262000A3686279207800F0CBFBB5E646464F46BA
:102630001E4DA4E74E465F46E4E71D4DF6E67023C7
:10264000217A0B4217D1C80982460F330B405B0039
:1026500098461848EB1853441B7D0078834260D29B
:1026600015485B01006881469944002A00D14FE17A
:102670004B46002B5DD120780021FFF767FD8021BC
:102680002078FFF763FD87E60F4800F085FB012106
:1026900058460EAAFFF7D0FD002800D07CE6EAE7F6
:1026A0004C100020603E0010A41900204C1900209E
:1026B000083F0010E81F0020D8130020EA1F002068
:1026C000843E00105019002039220010237A0F2B6D
:1026D000D1D8D64AEB181B791278934234D3CAD199
:1026E000D34D686900F058FB012158466B690EAA6A
:1026F0009847002800D04FE66022150023791D403E
:102700001A42B8D163790A3B012BB4D800F044FBDC
:1027100063790A2B00D17FE158460EA900F0C8FA70
:102720003AE6834200D0EEE0C14B9946002A00D140
:10273000EEE04B46586900F02FFB4B46012158460E
:102740005B690EAA9847A7E7BA4A5B011568ED18BE
:10275000002DC6D18FE7A37999466B789945DBD0D8
:102760006B78002B00D02AE14B466B70002B00D118
:1027700022E148460138C0B2FDF77EFE002800D1B4
:1027800074E143780793022B00D06FE10122C179F5
:10279000B1468B11491113400A40302112015B01EF
:1027A00013432A78A8468A4313432B7009239A4679
:1027B00082445646BA46C37882781B021343C31834
:1027C00005939A4B04939A4B08939A4B09939A4B0F
:1027D0000A93059BB34200D84BE1737801220B2B7F
:1027E00003D13378F278F6187378042B00D03AE1ED
:1027F000059B00279B1B9BB20693049B0B921D78A5
:1028000019E0099A7B011568ED18002D00D12AE125
:10281000310058462B69069A98478446082803D900
:10282000069A824200D30BE1049B01371D78FFB268
:10283000BD4200D217E1BD42E3D8089B7D1B9C46F8
:102840006D016544E4E76B780CAA023213705846B8
:1028500001230EA900F042FA9EE5E3881A0AD8B2D5
:102860000F2A00D907E775499300CB589F460EA859
:1028700000F098FA5846A179FFF7A2FB02222B78C4
:1028800013432B7088E5E388012B00D0F3E6082280
:102890002B78584693430EA92B7000F009FA7BE57C
:1028A000022029780CAB9A1C8B068908DB0F0140AB
:1028B0000B431380584602230EA900F00FFA6BE574
:1028C000E388012B00D0D6E608222B7813432B7027
:1028D00022E7237A0F2B00D9CDE6544AEB181B7957
:1028E0001278934228D2534A5B011568ED18002DE7
:1028F00000D1C0E6686900F04FFA012158466B69C3
:102900000EAA9847C8E6002A00D0B4E600239946EC
:1029100062790220130004928343012B11D0002A14
:1029200000D0A8E62B004344534430331B790CAA53
:102930009B07DB0F0232BCE7934200D09BE63C4D85
:10294000D8E7E388002B12D1039B1878049B012B56
:1029500023D0FFF7FBFB43460221EB1853443033EF
:102960001A790A4301211A711A790A431A714B46DE
:10297000002B00D110E5586900F00EFA4B460121FA
:102980005B690EAA58469847002000F005FA3523E7
:10299000EB5CDB0700D5FFE4BEE6FFF7F5FB434643
:1029A0000221EB18534430331A798A431A711A7989
:1029B00004998A431A71DAE7FFF74CFCACE6002170
:1029C0005846FFF707FB5846FFF7AAFB002292463E
:1029D000174AAB780592174A049306922A00134BC4
:1029E0005546984692461B780EE0069B6A011B6886
:1029F0009B18002B56D0DB68584698474346013554
:102A00001B78EDB2AB4239D3AB42EED8059AEB1A44
:102A100094465B016344EEE70CAB9A1C58460123D5
:102A20000EA9157000F05AF9B6E4C046E81F002060
:102A3000083F0010D813002060190020AC3E0010A1
:102A40000B9A012A4DD0002A3CD00023B07804E034
:102A50000133DBB20F71934234D2C118C9B2414481
:102A60000D79FF2DF4D04E464546574600236B7036
:102A700001E64E465746FFF7EBFB4DE6554654221E
:102A800000212800FFF7C0F81022FF21281DFFF7C2
:102A9000BBF828002022FF211430FFF7B5F8049B73
:102AA000AB7061E65546FAE7FFF7CCFB021E00D19A
:102AB000E1E5D37891781B020B4358460EA900F04C
:102AC0000DF9E9E565463B0031002A000A9800F05F
:102AD00065FDAC46049B66441B78BB4200D378E698
:102AE000C1E7174B29699942AFD1079AADE7FFF7C4
:102AF000ABFB021E00D1BEE5584613780EA900F0CC
:102B0000EDF8C9E52189FDF7BBFC021EF4D1B2E561
:102B1000022A0FD0FFF79AFB021ECAD1ABE5FDF7E0
:102B2000A7FC021E00D1A6E5122358460EA900F00C
:102B3000D5F8B1E5FDF7A0FC021EBAD19BE5C04671
:102B4000C1310010F8B557464E46DE4645460C00EA
:102B5000E0B516001F00002A3CD0702398461E4B9B
:102B600000259B461D4B9A461AE05B461B782000C9
:102B700099465346997800F0D3FC00281CD02100D8
:102B80004846FFF743FA002816D0A378DA09012A4D
:102B900019D00A9A013513702378E418B54219DA6E
:102BA0006378052B08D1E3789B079B0FBB4203D1C9
:102BB0004246A3781A42D8D00020F0BCBB46B246A9
:102BC000A946A046F8BD0B9A013513702378E41886
:102BD000B542E5DB0120F0E74C1000204C19002045
:102BE000702270B58B780C001A4201D0002070BDA5
:102BF000064B20001D78064B997800F091FC0028C8
:102C0000F4D021002800FFF701FAF0E74C10002073
:102C10004C1900200B007F2010B51840DB0934331D
:102C20004000044AC018044B1168C01800F034FC7E
:102C300010BDC046A01900204C1900200B007F20B9
:102C400010B51840DB0934334000044AC018044B67
:102C50001168C01800F048FC10BDC046A019002043
:102C60004C19002070B57F240F480C4064000419F3
:102C7000CD09641930342079C00701D5002070BD1A
:102C8000012625790948354300782571FFF74CFA6C
:102C90000028F4D10122237993432371237903324D
:102CA00093432371EAE7C0464C1900204C100020E2
:102CB00070B5094C0600082220000D00FEF7AAFF9F
:102CC00000238021E360A3602B7830009943002229
:102CD0000023FFF7C7FF70BDE8180020F8B5CE4607
:102CE00047469046254E80B58146082230000D00AB
:102CF0001F00FEF78FFF4346B3600023F381EC799A
:102D0000AB7924021C43231CBC4200D93B1C9FB25C
:102D1000B381002C0DD0002F17D04246002A2BD0B3
:102D2000402F1BD89FB233787F2B1CD80021144A28
:102D30000FE080212B780022994348460023FFF7BB
:102D400091FFC0BCB946B046F8BD7F230022317860
:102D500099433B004846FFF785FFF2E740239FB2C7
:102D600033787F2BE2D9064C3A0041462000FEF72B
:102D700051FF80212200ECE70020E2E7E818002064
:102D8000A818002010B5142200210248FEF73CFFCD
:102D900010BDC046E8180020014B18617047C046BE
:102DA000E818002010B5054C010008222000FEF7AD
:102DB00031FF0023A360E36010BDC046E818002087
:102DC00070B5384C1D0023780600DA09C9098A421B
:102DD00010D00020002D00D070BD21003000FFF782
:102DE00007F92369002B03D0220003213000984704
:102DF0000120F1E77F2B06D8A068002834D02A00F4
:102E00002949FEF707FFE289A1685219E38892B2C7
:102E10004919E281A160934214D03F2D12D9A389B0
:102E2000981A051C80B240282AD82078ADB27F2895
:102E300028D800219A4232D01B4A2B003000FFF7DD
:102E400011FFC9E72369002B05D0220002213000C1
:102E5000984700280AD08021237800229943300027
:102E60000023FFF7FFFEB7E70020B5E700213000A1
:102E7000FFF76CF930008021FFF768F90120ABE71C
:102E80004025D2E79A4207D0074C2A002000FEF7DF
:102E9000C1FE80212200D0E780210022CDE7002260
:102EA000CBE7C046E8180020A818002070B5040041
:102EB000FFF7D6F9002800D170BDFFF7D9F9002837
:102EC000FAD123011B19DB00124D1B19DB00EE1890
:102ED000F1780029F0D010335D19280000F0CCFB08
:102EE0003F28E9D90020F178FFF794FE0028E3D0CD
:102EF000280000F0C1FBF1783F2807D9064BE2011A
:102F0000D21800204023FFF7ADFED5E70020FFF7E1
:102F100095FED1E760140020DC13002010B50400FA
:102F2000FFF79EF9002801D1002010BDFFF7A0F99E
:102F30000028F9D123011B19DB00044A1B19DB000F
:102F4000D218137901301840EFE7C0466014002012
:102F5000030110B51B18DB001818034BC000C01884
:102F600000F06CFB10BDC04670140020F0B580234B
:102F7000C64606013418E4002418204FE40010343B
:102F8000050000B53C195B029A4200D31C4A2000A0
:102F900092B200F0D5FB8046FFF762F9002803D11A
:102FA000404680BCB846F0BDFFF762F90028F7D173
:102FB0007619F6007619F600BE19F378002BEFD0DB
:102FC000200000F059FB3F28EAD90020F178FFF7F4
:102FD00021FE0028E4D0200000F04EFBF1783F28CD
:102FE00007D9084BEA01D21800204023FFF73AFE28
:102FF000D6E70020FFF722FED2E7C046601400208B
:10300000FFFF0000DC130020F8B50400FFF728F9EB
:10301000002801D10020F8BDFFF72AF90028F9D1D6
:1030200025012D19ED002D19ED002E00134F24362A
:10303000F619300000F002FB0028EBD07F190020C9
:10304000B978FFF7E7FD0028E4D00D4DE4016519DC
:1030500029004022300000F073FBB978041E08D02C
:1030600003002A000020FFF7FDFD0028D2D0200039
:10307000D1E70020FFF7E2FDCCE7C0466014002056
:103080001C14002070B504012418E4000C4B241813
:10309000E400E418802305005B029A4200D3094A49
:1030A000200092B200F012FC0600200000F0C6FAE8
:1030B0003F2801D8300070BD2800FFF7A5FFF9E7D1
:1030C00084140020FFFF00008922F0B500251B4C6E
:1030D00083B000212000D200FEF796FD184B21009E
:1030E0001D70FF236371E1235B02A36020000823AE
:1030F0008022A37338310095073B9200103000F016
:1031000067FA8E239B00E1182000012380220093A0
:103110009200243000F05CFA8723DB00E7183800C7
:10312000FDF7B8FC8823DB00E6183000FDF7B2FCA1
:10313000E56127622663656303B0F0BD601400207B
:103140005C1400200A4A116B136A00290CD0002B72
:1031500007D00023D361536313630023136201205C
:10316000704753631363FAE7002BF8D0D161F4E79B
:103170006014002070B50F4C052200212000FEF7DE
:1031800043FD0D4D2B78DA0707D50C4C9B070CD56A
:103190000121200000F076FC70BD2000103000F00E
:1031A00051FC2B78054C9B07F2D4200000F04AFC20
:1031B000EEE7C046601400205C1400208414002058
:1031C000F0B54B79060083B0022B02D18B79022B2C
:1031D00003D00025280003B0F0BD204FBB78002BA2
:1031E000F7D18B7809253B700C780C196378242B68
:1031F00007D00CE02378E4185D196378ADB2242B76
:1032000005D19542F6D90020FFF750FEE2E71A00FB
:10321000052B15D0042AF6D163790A2BF3D1104B74
:10322000277801930133009330000223E119023A19
:10323000FFF788FC0028CCD00E35ED19ADB2E2E7DF
:1032400021003000FFF7CCFC0028C2D0A3787B70AF
:1032500023785D19E4186278ADB2DBE760140020D2
:1032600062140020F8B560231400127805001340A2
:103270000020202B07D1304A6379277916781B026A
:103280003B439E4200D0F8BD6378222B1AD007D86A
:10329000202B34D0212BF6D101293ED00120F2E79A
:1032A000232BF0D1012940D00329F7D1234B002B48
:1032B000F4D0E178A37809020020194300E000BFB0
:1032C0000120E0E7012930D00329E7D101252E00B4
:1032D000A378E478023924021C4314712640243276
:1032E0001000714000F0CEFB154B002BD6D06208C9
:1032F000002031002A40FCF7EDFF0120C3E701293F
:103300000BD00329CAD10F4B002BC7D008320020A5
:103310001100FCF7F5FF0120B5E707232100280085
:10332000094AFFF7DBFC0120ADE721002800FFF789
:10333000BFFC0120A7E7C046601400200000000089
:10334000D50200100103001068140020F0B54F46AC
:103350004646D646C0B5364D8046EA780C001F007A
:103360008A423CD0AB788B4210D00020E0BCBA46F9
:10337000B146A846F0BD2F4B002B04D02E4800F0DC
:1033800073F9002851D00020FFF790FDAB78A342DD
:1033900001D00120EAE7294B002B02D0002000E0F9
:1033A00000BF0020FFF730FE0028F2D1244C20009F
:1033B00000F044F90028ECD1002FEAD0BF06E8D194
:1033C000243C4046A178FFF725FC0028E1D00023EB
:1033D00000224046A178FFF745FC0120C6E79AB2DB
:1033E00010239A46174EAA443100504600F06EFA58
:1033F000154B002BBFD06B79FF2BBCD0002FBAD060
:10340000F219914603E001364E45B4D06B7932781B
:103410009A42F8D1504600F027F90028F3D15346DC
:10342000103B597900E000BFEDE700E000BFAAE7DC
:103430006014002000000000701400200000000054
:1034400084140020DC1300200000000000B50300FD
:1034500083B0002910D00020012B07D80A78002A59
:1034600004D00C48C2540120012A01D003B000BD91
:103470001800FEF705FFF9E701236A46002001A9BD
:103480009380FEF7FDFE0028F0D00122014B1A7058
:10349000ECE7C04640190020037870B5DB07040054
:1034A0000E00DD0F002B17D103785B0701D5280034
:1034B00070BD01213000494200F08EFB2378DB070C
:1034C000DD0F002B0AD123785B0708D40422237870
:1034D00001251343237002E00025E8E700253000B2
:1034E00000F05AFBE3E7C04670B50C00012106006E
:1034F0004942200000F070FB33785B07DD0F002BA2
:1035000004DB200000F048FB280070BD3378DB07A7
:1035100004D40422337893433370F2E70025F0E7B4
:10352000437902791B021343C2785B0592075B0D56
:10353000920F022A1DD0032A0CD00020012A08D1A4
:1035400002394A425141124A9446614499424041EB
:10355000C0B2704702394A1E91410E4A4942114099
:103560008022D20094460020614499424041C0B27A
:10357000EFE7022905D0002040229A424041C0B224
:10358000E7E7054A981843425841C0B2E1E7C04610
:10359000FF03000040FCFFFF00FEFFFF8A1870B52C
:1035A000914207D27F264C78052C04D00C7809195B
:1035B0008A42F8D870BD34008D782C40640004191C
:1035C000ED0963550C7809198A42ECD8F2E7C04638
:1035D000F0B5C64600B504006846057E80208846E2
:1035E00017001E000002824226D8E068002803D09F
:1035F0000121494200F0F0FA2069002803D001219E
:10360000494200F0E9FA4346236073045B0CED0382
:103610001D430023E0686381A780E58023810028A3
:1036200001D000F0B9FA2069002801D000F0B4FA06
:10363000012080BCB846F0BD0020FAE710B504892F
:1036400041898288A3B288B28C4207D31B1A9BB2ED
:10365000101C9A4200D9181C80B210BD5100091AE2
:103660005B189BB2F4E7C04603894089181A4342AD
:103670005841C0B27047C04610B50489418982885C
:10368000A3B288B28C4207D31B1A9BB200209A4285
:1036900001D9D21A90B210BD5100091A5B189BB221
:1036A000F4E7C04670B5040000690E00002803D09E
:1036B0000121494200F090FA25896089A288A9B2C7
:1036C00083B2854232D3CD1AADB2002D28D0AA42A2
:1036D00008D291422FD3891A8BB263819A4203D8C0
:1036E0009B1A9BB29A42FBD9E28821685204520C81
:1036F00053433000C918FEF78DFA63890125591C20
:1037000089B2A2888B420DD900215200891A89B250
:1037100020696181002801D000F03EFA280070BDC8
:10372000618989B252009142F2DBEFE75500ED1A50
:103730004D19ADB2C9E789188BB26381CEE7C04697
:10374000F0B546464F46D646C0B5060000698946E4
:103750009046002803D00121494200F03DFA31890A
:103760007289B5888BB294B2914254D31F1BBFB2F9
:10377000002F4AD0BD4205D2AB4251D25B199CB258
:103780002F0074814346B8453DD89FB2A54203D867
:10379000641BA4B2A542FBD9F28831685204520CD2
:1037A000904662432B1B9BB2891842469F4225D903
:1037B00053439BB21A0048469A46FEF72BFA4346FB
:1037C00048467D1B64195C4331685044A2B2FEF741
:1037D00021FA7189B588CB199BB26A00994216D932
:1037E0009B1A9BB230697381002801D000F0D4F994
:1037F0003800E0BCBA46B146A846F0BD48467A4318
:10380000FEF708FAE5E73B1CBFE773899BB26A0045
:103810009342E7DBE4E76F003F1BDF19BFB2A7E786
:103820005B1B9CB2ACE7C046F8B50400C0680E0054
:10383000002803D00121494200F0CEF925892089D2
:103840006189A288ADB283B28FB2884229D3DB1BD3
:103850009BB29A4209D8E779FF0906D1E0680028AF
:1038600001D000F099F93800F8BD2B0095421DD326
:103870009B1A9BB29342FBD2E28820685204520CFE
:1038800053433100C018FEF7C5F96B1C9BB2A288E8
:103890009D4217D9002352009B1A9BB20127238116
:1038A000DCE75100C91B5B189BB2D2E7E2882068B5
:1038B0005204520C53433100C018FEF7ABF90135E6
:1038C000A288ABB252009342E8DBE5E7F0B54E4682
:1038D0005746DE464546E0B589460600170083B0E8
:1038E000002A67D0C068002803D00121494200F0B7
:1038F00073F93389F2799BB298467389B5889BB284
:10390000D20940D198455ED26A00D31A43449BB293
:10391000AB425DD2EB1A1A1C9BB2BB4200D93A1CD7
:1039200097B27B1B9BB20193F3885B045B0C9A46B6
:103930004346DB199BB29B464446A84503D3641B10
:10394000A4B2AC42FBD25346634330682D1BADB2E8
:10395000C018BD424BD3524649467A43FEF75AF946
:10396000B3885B00D84501D89B4503DB5A46D31A80
:103970009BB29B465B463D003381F06800281AD01D
:1039800000F00AF917E0F2885204520C9246AF4256
:1039900020D298454DD34246D21A92B26900781B84
:1039A00080B2D21901908A4233DA4346FB189BB2A7
:1039B0009B46C1E70025280003B0F0BCBB46B246D9
:1039C000A946A046F0BD4246D31A9BB2AB42A1D352
:1039D0000025D2E7002DD0D07F1B574398465A19B7
:1039E000002392B2B94493462F000193A4E75346B3
:1039F0005D43ADB22A004946FEF70CF9019B290050
:103A0000E21853465A43306892B24944FEF702F92D
:103A1000A6E75A1992B29346D21B92B290469342AD
:103A20000CD94346591A8BB29846FB189BB29B4659
:103A300082E76900CA1A424492B2B0E7914200DDBF
:103A40007AE7EEE710B50400C068002803D0012132
:103A5000494200F0C1F82069002803D00121494201
:103A600000F0BAF80023E06863812381002801D0C8
:103A700000F092F82069002801D000F08DF80120B4
:103A800010BDC04670B50400C0680D00002803D00A
:103A90000121494200F0A0F82069002803D001214B
:103AA000494200F099F87F21E379ED011940E0687F
:103AB0002943E171002801D000F06EF82069002848
:103AC00001D000F069F8012070BDC04610B5024871
:103AD00000F004F810BDC046D41F002010B588B017
:103AE00004000D2200216846FEF78EF80D22002109
:103AF00004A8FEF789F84B236A466846137004A9A8
:103B00000D2200F041F81521082220006944FEF73B
:103B100081F808B010BDC04610B583070AD0030075
:103B2000032102E001330B4205D01A78002AF9D1B3
:103B3000181A10BD030019680C4A0D4C8A188A43E4
:103B400022420FD15968094A04338A188A43224213
:103B500008D15968054A04338A188A432242F1D0B1
:103B600000E001331A78002AFBD1E1E7FFFEFEFEF8
:103B700080808080F8B5C04601B40248844601BC0C
:103B8000604700BF110A002001B40248844601BC0E
:103B9000604700BFDD0D002001B40248844601BC2F
:103BA000604700BFE501002001B40248844601BC23
:103BB000604700BFE909002001B40248844601BC07
:103BC000604700BF0D02002001B40248844601BCDA
:103BD000604700BF190F002001B40248844601BCB1
:103BE000604700BF5901002001B40248844601BC6F
:103BF000604700BFC100002001B40248844601BCF8
:103C0000604700BFA10A002001B40248844601BCFD
:103C1000604700BF510A0020F91700102518001056
:103C2000091A0010F91B0010651A0010691B00101A
:103C3000311900104118001061180010751800109B
:103C4000450A00107D180010FD0D0010C11700106E
:0C3C5000F1060010CD3A0010B102001087
:103C5C005069636F204A5031000000005069636F57
:103C6C00204A503120555342204164617074657272
:103C7C000000000030303030303100004A5031202C
:103C8C00434443000A2A2A2A2050414E4943202A01
:103C9C002A2A0A000A0000004E6F207370696E6CAD
:103CAC006F636B732061726520617661696C616210
:103CBC006C650000486172647761726520616C61AB
:103CCC00726D20256420616C726561647920636C6F
:103CDC0061696D65640000004861726420617373F2
:103CEC006572740052656C6561736500626F6F7408
:103CFC00325F77323571303830000000322E322E80
:103D0C00300000007069636F000000006A70315F62
:103D1C0062726964676500004D6172203330203235
:103D2C0030323600556E68616E646C6564204952A1
:103D3C005120307825780A006570202530325820C3
:103D4C0077617320616C7265616479206176616959
:103D5C006C61626C6500000043616E277420636FB8
:103D6C006E74696E75652078666572206F6E206959
:103D7C006E61637469766520657020253032580059
:103D8C004C454400A43D00105C3C0010683C001005
:103D9C00803C0010883C00100904000009024B0014
:103DAC00020100A032080B0002020200000904000C
:103DBC000001020200040524002001052401000179
:103DCC0004240206052406000107058103080010DF
:103DDC0009040100020A000000070502024000006D
:103DEC00070582024000000012010002EF020140B0
:103DFC008A2E0A0000010102030100000600525045
:103E0C00D3F07542F03C001006005250E182887FDE
:103E1C00F83C001006005250ABB36053083D001044
:103E2C0006005250BBFF3CB6103D0010060052502D
:103E3C00861C0302183D0010060052505422A29D0D
:103E4C00243D001005005250DE65F468EC4E001065
:103E5C000D0A000098230010002500108825001082
:103E6C00D8240010EA240010C824001038240010B4
:103E7C00E4230010D8230010A0280010862800107E
:103E8C0076260010C0280010762600106E28001030
:103E9C005A280010762600104628001056270010CD
:103EAC00762600101E2B0010102B0010042B001077
:103EBC007626001076260010EE2A0010102B00102B
:103ECC007626001076260010762600107626001036
:103EDC00762600107626001076260010A82A0010F0
:103EEC006E0B00206E0B0020B80B0020D80B0020AE
:103EFC00160C0020280C0020640B00200000000091
:103F0C00C93000104531001075310010C13100105E
:103F1C00653200104D3300100000000009005250B3
:083F2C00000000028C3D0010B2
:103F3400083E0010143E0010203E00102C3E0010DD
:103F4400383E0010443E0010503E0010283F001040
:103F5400F0B5C646150000B504001E000268EFF374
:103F6400108172B61368002BFCD0BFF35F8F04235B
:103F7400E3562268002B2BDBBFF35F8F0020106019
:103F840081F31088D02212061278002752B290468C
:103F94009A420ED1002080BCB846F0BDBFF35F8FBB
:103FA400176081F310882800310000F039FF0028E1
:103FB400F0D12268EFF3108172B61368002BFCD0A5
:103FC400BFF35F8F237922687F2BE7D9434602E052
:103FD400D0231B061B682371BFF35F8F002313607C
:103FE40081F310880120D6E7F0B5C64600B50D0070
:103FF400040000F0E5FEFA2206000F00002328006A
:104004000021920000F004FF36184F41002F02DA1D
:104014000126174F7642D0231B061B6800259846BD
:104024000AE0BFF35F8F156081F310883000390018
:1040340000F0F6FE002818D12268EFF3108172B662
:104044001368002BFCD0BFF35F8F237922687F2B8A
:10405400E7D943462371BFF35F8F0023136081F3D5
:104064001088012080BCB846F0BD0020FAE7C046A5
:10407400FFFFFF7F0268EFF3108172B61368002B15
:10408400FCD0BFF35F8FFF2303710368BFF35F8F1F
:1040940000221A6081F3108840BF70470022154B3C
:1040A40010B59A60DA601A615A619A61DA611A622B
:1040B4005A629A62DA621A635A639A63DA631A6416
:1040C4005A649A64DA641A655A659A65DA651A66F6
:1040D4005A669A66DA661A675A679A67DA67F03236
:1040E40092000021044800F083FE044B044A1A6045
:1040F40010BDC04600001050E41B0020A81F002083
:1041040080011050F0B54E464546DE465746E0B5B0
:10411400214B00249E6D012585B0002E22D01F4B1B
:104124009A46012399461E4B984601E0202C19D04B
:104134002A00230001342F003240E4B26D00002A2B
:10414400F4D0524697654A465B085B0022409B18B0
:104154005B01434418009B4600F01EFC002808D174
:10416400BE43E3D105B0F0BCBB46B246A946A04667
:10417400F0BD5B46E0219A78DB8A01A883600023C6
:10418400C900018001210271437100F025FC5846E9
:1041940000F0A0FBE4E7C0460000115000301150CD
:1041A400A41B00209823F0B5C646C84A00B5D558CC
:1041B40080232E009B02102484B01E401D4274D024
:1041C400C34BC44C9A6AC44B00261A603B23E35C7D
:1041D400022B00D14FE17B23E35C022B00D1F3E0FF
:1041E400BB23E35C022B00D1FAE0FB23E35C022B4C
:1041F40000D101E13C23FF33E35C022B00D12DE12C
:104204007C23FF33E35C022B00D10EE1BC23FF339C
:10421400E35C022B00D13FE1FC23FF33E35C022B80
:1042240000D1F5E0AD4BE35C022B00D174E1AC4B63
:10423400E35C022B00D105E1AA4BE35C022B00D125
:1042440075E1A94BE35C022B00D132E1A74BE35C9F
:10425400022B00D1A0E1A64BE35C022B00D171E15B
:10426400A44BE35C022B00D1A1E1A34BE35C022B42
:1042740000D17FE1002E08D1A04B1B78002B04D184
:1042840080219F4A90338902D150C02269468F4BC6
:1042940092009B6C80265B058A805B0D012101A83E
:1042A400029300F099FB974CB602EB0600D57FE031
:1042B40080235B021D4231D01E4301230224984611
:1042C400844FBB7E002B14D000F082FD012800D95E
:1042D40072E0C02200213800920100F001FB380096
:1042E40000F0F8FA00F074FD012802D9844B5C66F2
:1042F4001C664346FB702037012C22D1C0236A463A
:10430400DB009380804A02AB03CA03C3012101A8E6
:1043140000F062FB80227A4B92021A6580235B01D3
:104324001D4210D18023DB011D4223D180231B02B7
:104334001D422FD1AE4200D0C0E104B080BCB846CB
:10434400F0BD0124BDE700241E43604B1C60FFF751
:10435400A5FE80236A465B0093801472012101A8A4
:1043640000F03AFB8022664B12031A658023DB01BE
:104374001D42DBD01E4380236A46DB00938001216B
:1043840001A800F029FB10225D4B1A6580231B0253
:104394001D42CFD01E43A0236A46DB009380012137
:1043A40001A800F019FB8022554B12011A65C1E7E0
:1043B400FFF7A8FE26007BE7544B444A1C66536E65
:1043C4002340A342FBD184E77833E75C002F00D17C
:1043D40006E70233E25C002A00D00DE13E00FFE66E
:1043E400B833E75C002F00D1FFE60233E25C002A19
:1043F40000D0F9E03E00F8E6F833E75C002F00D186
:10440400F8E60233E25C002A00D041E13E00F1E626
:10441400F933FF33E75C002F00D103E70233E25C9A
:10442400002A00D02BE13E00FCE67933FF33E75C41
:10443400002F00D1EAE60233E25C002A00D015E145
:104444003E00E3E6324BE75C002F00D1F4E6023392
:10445400E25C002A00D001E13E00EDE63933FF338F
:10446400E75C002F00D1CBE60233E25C002A00D0E7
:10447400EBE03E00C4E63833E65C002E00D1AAE649
:104484000233E25C002A00D1A5E62000002220309D
:10449400E25400F04DFA9EE6B933FF33E75C002F97
:1044A40000D1B9E60233E25C002A00D0C4E03E0049
:1044B400B2E6184BE75C002F00D1C7E60233E25C9A
:1044C400002A00D0B0E03E00C0E6C0460000115013
:1044D40000400540A41B00209C1B00203B02000060
:1044E4007B020000BB020000FB0200003B03000053
:1044F4007B030000BB030000FB030000E91F002056
:104504000030115010000200000010500020115023
:104514007A020000FA0200006B4BE75C002F00D126
:1045240085E60233E25C002A76D13E007FE6674BE3
:10453400E75C002F00D184E60233E25C002A63D1F9
:104544003E007EE6624BE75C002F00D188E6023332
:10455400E25C002A00D0A3E05E4BE35C022B30D186
:104564005D4BE35C002B27D15C4BE35C022B00D05A
:104574008BE63E005A4BE35C002B00D17AE6FF2326
:104584009B00E25C002A00D17FE60022E2541C3B3F
:10459400E01800F0CDF978E6524BE75C002F00D12B
:1045A40059E60233E25C002A16D13E0053E64A4B38
:1045B400E35C002B00D158E6EF239B00E25C002A69
:1045C40075D1464BE35C022B00D05EE6444BE35CC2
:1045D400002B00D159E6D2E70022E2541C3BE0183C
:1045E40000F0A6F93E0036E620000022A030E25496
:1045F4003E0000F09DF9F8E5200000226030E2540E
:104604003E0000F095F9EBE50022E2541C3BE01873
:1046140000F08EF93E0014E60022E2541C3BE01840
:1046240000F086F93E0002E60022E2541C3BE0184A
:1046340000F07EF93E0009E620000022A130FF30A0
:10464400E2543E0000F074F9E6E520000022213037
:10465400FF30E2543E0000F06BF9D1E50022E25451
:104664001C3BE01800F064F93E00E5E52000002260
:104674006130FF30E2543E0000F05AF9C6E52000F4
:104684000022E130FF30E2543E0000F051F9C9E568
:1046940020000022E030E2543E0000F049F9A9E590
:1046A4000022E2541C3BE01800F042F954E70022D7
:1046B400E2541C3BE01800F03BF982E731000A4861
:1046C400694000F075FBC0463A020000BA020000DF
:1046D4007A030000BB030000BA030000FB030000E0
:1046E400FA0300003A030000303D0010F0B5C6465E
:1046F40000B50200838A008B8C46011C984200D9C5
:10470400191CD47880252000461EB04189B2ED00E2
:104714000D434003284301256C405B1AD470547840
:104724009BB29382002C31D16446D568A4014E1EFD
:104734002D19B0461469002923D0062E32D92B0036
:1047440023439B072ED1631CEB1A022B2AD9002387
:104754008F08BF00E658EE5004339F42FAD1434617
:10476400ED19DB1BE419B94209D026782E70002B11
:1047740005D066786E70012B01D0A378AB701469F4
:10478400938A64181461802212021043002B02D110
:104794008023DB0118436346002B00D0000480BC57
:1047A400B846F0BD0023E65CEE5401339942FAD1D9
:1047B400E5E7C0468368F0B51A680400002900D014
:1047C400120C63789205900D002B08D1E38AC3186C
:1047D400E382238B834201D90023A382F0BDE368E3
:1047E400890125695E18471E002822D0062F26D984
:1047F40001315B18EB1A022B21D92B0033439B07A1
:104804001DD10023120E9200F158E95004339A424C
:10481400FAD1BF1AAD18B618904209D032782A706E
:10482400002F05D072786A70012F01D0B278AA7077
:104834002569E38A2D18C318E3822561C9E700229C
:10484400B35CAB5401329042FAD12569F1E7C0461A
:1048540010B50400836800211B68FFF7ABFF636891
:104864001B685B0002D5238B834200D010BD01215D
:104874002000FFF79FFFF9E7084A0300126C0020AD
:10488400920703D49A78D209012A00D07047D87EBF
:10489400023843425841C0B2F8E7C0460000115004
:1048A40010B5FFF7E9FF00280CD00749074B8C46E9
:1048B400074A9B6A126863449B1A0020C6229A42E4
:1048C4004041C0B210BDC046E0FCFFFF00400540BF
:1048D4009C1B002000238376436103617047C0461C
:1048E40010B58368002901D01C682140002A12D029
:1048F4008024E400114322420DD01A6822420CD1D4
:10490400084A0A401A60084A126C920703D40C231E
:10491400033BFDD28368196010BD8178034800F021
:1049240047FAC046FFFBFFFF00001150443D001052
:10493400436870B50021802504001E68FFF7D6FE89
:10494400124B6D011A6C0543A37892070ED55B06D2
:104954000ED00F4B1E4080239B0533436268002119
:10496400136020002A00FFF7BBFF70BDDB09F0D005
:10497400A38A002BEDD001212000FFF7B7FEA0236E
:10498400044ADB05324005431343E7E700001150B6
:10499400FFFFFFAFFFFFFFDF70B5857E0400002D32
:1049A40014D0FFF755FFA38A002B01D1280070BD56
:1049B4002000FFF775FF002803D00123002523778B
:1049C400F4E72000FFF7B4FF0025EFE78178014802
:1049D40000F0EEF9643D0010F0B5CE46474680B5D0
:1049E400437805000E0085B0062B08D86B4A9B005F
:1049F400D3589F466A4A13780133DBB21370694B6C
:104A04001C686269EFF3108172B61368002BFCD046
:104A1400BFF35F8FA1612000290000F0E1F9626912
:104A2400A369BFF35F8F0021116083F3108800280E
:104A340004D105B0C0BCB946B046F0BD32006978B7
:104A4400287800F0DDF9F4E70121574B1A788A43FE
:104A54001A701A7801318A431A7000225A701A782F
:104A640002318A431A70CAE7504B514F9946514B51
:104A7400002498463A7810E043461B6861015B18AD
:104A8400002B06D0DB69002B03D06968287898478F
:104A94003A780134E4B2944217D8A242ECD8A31A6B
:104AA4005B014B44EEE7404B1A78D207C1D5042191
:104AB4001A780A431A70A2E73B4B1A78D207B8D582
:104AC40004211A788A431A7099E7374F3B785B07B9
:104AD4002BD504223B78002193433B706B4606326E
:104AE400981D00F085F92B7801AC237005236370C1
:104AF4002C4B1B6898465A69EFF3108172B6136801
:104B0400002BFCD0BFF35F8F4346404699612100E0
:104B140000F066F943465A699B69BFF35F8F002131
:104B2400116083F31088002831D1FB78DB0700D4AF
:104B34007FE76B460A220021981D00F059F92B7873
:104B440001AC2370032363706B686360154B1D68AD
:104B54006A69EFF3108172B61368002BFCD0BFF3BF
:104B64005F8FA9612800210000F03AF96A69AB69F6
:104B7400BFF35F8F0021116083F31088002800D1F8
:104B840057E732006178207800F03AF951E73200B3
:104B94006178207800F034F9C7E7C046EC3E001095
:104BA400EA1F0020A41900204C190020083F00101F
:104BB400E81F0020D813002010B5084C2378002BE0
:104BC4000AD18023064807495B051A68C25004339A
:104BD4008B42FAD10123237010BDC046EB1F002085
:104BE400681A00100001001010B5014B984710BD61
:104BF400691A0020064B5A6802609A684260DA68B3
:104C040082601A69C2605A6902619B694361704794
:104C1400000002400268064B5A6042689A6082684B
:104C2400DA60C2681A6102695A6142699A6170471E
:104C340000000240034B1A68C0239B009343024ABE
:104C4400136070470C8001400C900140054B1A68BA
:104C540080239B005340C02292001340024A1360F9
:104C64007047C0460C8001400C9001400023F0B511
:104C7400DE4657464E4645469A46E0B589B0019011
:104C84000E00988A45491B8B140098475346814669
:104C94004349988A1B8B9847534642490500988A92
:104CA4001B8B98478046FFF787FF02A8FFF7A2FFF8
:104CB400C847A847FFF7CAFF251E22D00823C021F2
:104CC4009C460220490562468B6A1A4018423FD02E
:104CD400631B002D2FD1002A11D1002C11D0C02329
:104CE4005B059B4602239A46063399465B464A4631
:104CF40057469B6A1A401F4242D0002AF6D0002C25
:104D040030D1FFF797FFC047FFF76EFF02A8FFF708
:104D140081FF09B0F0BCBB46B246A946A046F0BD2F
:104D2400002C2FD1C0225205926A914608224F4688
:104D34003A40BF072DD50D2B1BD9002AF0D1C02234
:104D44005205926A914608224F463A40BF07F2D470
:104D5400002A04D12B002343002BB4D1D1E72B002C
:104D6400002CF9D00B6E013C3370230001362B4329
:104D7400F2E7019F013D3B7801370B660197E7E7B6
:104D84000025E5E7C0235B051B6E013C337001364B
:104D940099E72B00002ADFD1DCE7C0464946000032
:104DA40045580000464300007047C046000000001C
:104DB40001B40248844601BC604700BF9D05001051
:104DC40001B40248844601BC604700BF29120010A8
:104DD40001B40248844601BC604700BF910500103D
:104DE40001B40248844601BC604700BF2938001062
:104DF40001B40248844601BC604700BF091C00108E
:104E040001B40248844601BC604700BF3D22001043
:104E140001B40248844601BC604700BF351B001042
:104E240001B40248844601BC604700BFF910001079
:104E3400100000000000000000000100000000005D
:104E4400000000000000020000000000000000005C
:104E54000000030000000000000000000000FF004C
:104E64000000000001B5486801318E4600477046D5
:104E740009380149884701BD81090010000000007C
:104E8400000000000000000000000000000000001E
:104E94005810002000000000000000000000000086
:104EA400503300004C3300005433000052330000F0
:104EB4004D5300004D4300005334000043340000C0
:104EC400A819002010000C000000000000000000E1
:104ED400000000000000000000000000FF000000CF
:084EE4000000000000000000C6
:04000005100001E9FD
:00000001FF
